{"contracts/DDoSAlert.sol":{"DDoSAlert":{"abi":[{"anonymous":false,"inputs":[{"indexed":true,"internalType":"address","name":"node","type":"address"},{"indexed":false,"internalType":"string","name":"ipAddress","type":"string"},{"indexed":false,"internalType":"uint256","name":"timestamp","type":"uint256"}],"name":"MaliciousTrafficDetected","type":"event"},{"inputs":[{"internalType":"string","name":"ipAddress","type":"string"}],"name":"reportAttack","outputs":[],"stateMutability":"nonpayable","type":"function"}],"evm":{"bytecode":{"linkReferences":{},"object":"608060405234801561001057600080fd5b50610340806100206000396000f3fe608060405234801561001057600080fd5b506004361061002b5760003560e01c80634163f0c514610030575b600080fd5b61004a600480360381019061004591906101f9565b61004c565b005b3373ffffffffffffffffffffffffffffffffffffffff167fdc79bfe0acfcfe8a8d8bd14fb64702a29753d21acf32999196862ff0b3f5e1e782426040516100949291906102da565b60405180910390a250565b6000604051905090565b600080fd5b600080fd5b600080fd5b600080fd5b6000601f19601f8301169050919050565b7f4e487b7100000000000000000000000000000000000000000000000000000000600052604160045260246000fd5b610106826100bd565b810181811067ffffffffffffffff82111715610125576101246100ce565b5b80604052505050565b600061013861009f565b905061014482826100fd565b919050565b600067ffffffffffffffff821115610164576101636100ce565b5b61016d826100bd565b9050602081019050919050565b82818337600083830152505050565b600061019c61019784610149565b61012e565b9050828152602081018484840111156101b8576101b76100b8565b5b6101c384828561017a565b509392505050565b600082601f8301126101e0576101df6100b3565b5b81356101f0848260208601610189565b91505092915050565b60006020828403121561020f5761020e6100a9565b5b600082013567ffffffffffffffff81111561022d5761022c6100ae565b5b610239848285016101cb565b91505092915050565b600081519050919050565b600082825260208201905092915050565b60005b8381101561027c578082015181840152602081019050610261565b60008484015250505050565b600061029382610242565b61029d818561024d565b93506102ad81856020860161025e565b6102b6816100bd565b840191505092915050565b6000819050919050565b6102d4816102c1565b82525050565b600060408201905081810360008301526102f48185610288565b905061030360208301846102cb565b939250505056fea26469706673582212206d138abd69836b5ef4e88b3c72db48536ac42d42318a9f87b8699f2350567f4464736f6c63430008120033","opcodes":"PUSH1 0x80 PUSH1 0x40 MSTORE CALLVALUE DUP1 ISZERO PUSH2 0x10 JUMPI PUSH1 0x0 DUP1 REVERT JUMPDEST POP PUSH2 0x340 DUP1 PUSH2 0x20 PUSH1 0x0 CODECOPY PUSH1 0x0 RETURN INVALID PUSH1 0x80 PUSH1 0x40 MSTORE CALLVALUE DUP1 ISZERO PUSH2 0x10 JUMPI PUSH1 0x0 DUP1 REVERT JUMPDEST POP PUSH1 0x4 CALLDATASIZE LT PUSH2 0x2B JUMPI PUSH1 0x0 CALLDATALOAD PUSH1 0xE0 SHR DUP1 PUSH4 0x4163F0C5 EQ PUSH2 0x30 JUMPI JUMPDEST PUSH1 0x0 DUP1 REVERT JUMPDEST PUSH2 0x4A PUSH1 0x4 DUP1 CALLDATASIZE SUB DUP2 ADD SWAP1 PUSH2 0x45 SWAP2 SWAP1 PUSH2 0x1F9 JUMP JUMPDEST PUSH2 0x4C JUMP JUMPDEST STOP JUMPDEST CALLER PUSH20 0xFFFFFFFFFFFFFFFFFFFFFFFFFFFFFFFFFFFFFFFF AND PUSH32 0xDC79BFE0ACFCFE8A8D8BD14FB64702A29753D21ACF32999196862FF0B3F5E1E7 DUP3 TIMESTAMP PUSH1 0x40 MLOAD PUSH2 0x94 SWAP3 SWAP2 SWAP1 PUSH2 0x2DA JUMP JUMPDEST PUSH1 0x40 MLOAD DUP1 SWAP2 SUB SWAP1 LOG2 POP JUMP JUMPDEST PUSH1 0x0 PUSH1 0x40 MLOAD SWAP1 POP SWAP1 JUMP JUMPDEST PUSH1 0x0 DUP1 REVERT JUMPDEST PUSH1 0x0 DUP1 REVERT JUMPDEST PUSH1 0x0 DUP1 REVERT JUMPDEST PUSH1 0x0 DUP1 REVERT JUMPDEST PUSH1 0x0 PUSH1 0x1F NOT PUSH1 0x1F DUP4 ADD AND SWAP1 POP SWAP2 SWAP1 POP JUMP JUMPDEST PUSH32 0x4E487B7100000000000000000000000000000000000000000000000000000000 PUSH1 0x0 MSTORE PUSH1 0x41 PUSH1 0x4 MSTORE PUSH1 0x24 PUSH1 0x0 REVERT JUMPDEST PUSH2 0x106 DUP3 PUSH2 0xBD JUMP JUMPDEST DUP2 ADD DUP2 DUP2 LT PUSH8 0xFFFFFFFFFFFFFFFF DUP3 GT OR ISZERO PUSH2 0x125 JUMPI PUSH2 0x124 PUSH2 0xCE JUMP JUMPDEST JUMPDEST DUP1 PUSH1 0x40 MSTORE POP POP POP JUMP JUMPDEST PUSH1 0x0 PUSH2 0x138 PUSH2 0x9F JUMP JUMPDEST SWAP1 POP PUSH2 0x144 DUP3 DUP3 PUSH2 0xFD JUMP JUMPDEST SWAP2 SWAP1 POP JUMP JUMPDEST PUSH1 0x0 PUSH8 0xFFFFFFFFFFFFFFFF DUP3 GT ISZERO PUSH2 0x164 JUMPI PUSH2 0x163 PUSH2 0xCE JUMP JUMPDEST JUMPDEST PUSH2 0x16D DUP3 PUSH2 0xBD JUMP JUMPDEST SWAP1 POP PUSH1 0x20 DUP2 ADD SWAP1 POP SWAP2 SWAP1 POP JUMP JUMPDEST DUP3 DUP2 DUP4 CALLDATACOPY PUSH1 0x0 DUP4 DUP4 ADD MSTORE POP POP POP JUMP JUMPDEST PUSH1 0x0 PUSH2 0x19C PUSH2 0x197 DUP5 PUSH2 0x149 JUMP JUMPDEST PUSH2 0x12E JUMP JUMPDEST SWAP1 POP DUP3 DUP2 MSTORE PUSH1 0x20 DUP2 ADD DUP5 DUP5 DUP5 ADD GT ISZERO PUSH2 0x1B8 JUMPI PUSH2 0x1B7 PUSH2 0xB8 JUMP JUMPDEST JUMPDEST PUSH2 0x1C3 DUP5 DUP3 DUP6 PUSH2 0x17A JUMP JUMPDEST POP SWAP4 SWAP3 POP POP POP JUMP JUMPDEST PUSH1 0x0 DUP3 PUSH1 0x1F DUP4 ADD SLT PUSH2 0x1E0 JUMPI PUSH2 0x1DF PUSH2 0xB3 JUMP JUMPDEST JUMPDEST DUP2 CALLDATALOAD PUSH2 0x1F0 DUP5 DUP3 PUSH1 0x20 DUP7 ADD PUSH2 0x189 JUMP JUMPDEST SWAP2 POP POP SWAP3 SWAP2 POP POP JUMP JUMPDEST PUSH1 0x0 PUSH1 0x20 DUP3 DUP5 SUB SLT ISZERO PUSH2 0x20F JUMPI PUSH2 0x20E PUSH2 0xA9 JUMP JUMPDEST JUMPDEST PUSH1 0x0 DUP3 ADD CALLDATALOAD PUSH8 0xFFFFFFFFFFFFFFFF DUP2 GT ISZERO PUSH2 0x22D JUMPI PUSH2 0x22C PUSH2 0xAE JUMP JUMPDEST JUMPDEST PUSH2 0x239 DUP5 DUP3 DUP6 ADD PUSH2 0x1CB JUMP JUMPDEST SWAP2 POP POP SWAP3 SWAP2 POP POP JUMP JUMPDEST PUSH1 0x0 DUP2 MLOAD SWAP1 POP SWAP2 SWAP1 POP JUMP JUMPDEST PUSH1 0x0 DUP3 DUP3 MSTORE PUSH1 0x20 DUP3 ADD SWAP1 POP SWAP3 SWAP2 POP POP JUMP JUMPDEST PUSH1 0x0 JUMPDEST DUP4 DUP2 LT ISZERO PUSH2 0x27C JUMPI DUP1 DUP3 ADD MLOAD DUP2 DUP5 ADD MSTORE PUSH1 0x20 DUP2 ADD SWAP1 POP PUSH2 0x261 JUMP JUMPDEST PUSH1 0x0 DUP5 DUP5 ADD MSTORE POP POP POP POP JUMP JUMPDEST PUSH1 0x0 PUSH2 0x293 DUP3 PUSH2 0x242 JUMP JUMPDEST PUSH2 0x29D DUP2 DUP6 PUSH2 0x24D JUMP JUMPDEST SWAP4 POP PUSH2 0x2AD DUP2 DUP6 PUSH1 0x20 DUP7 ADD PUSH2 0x25E JUMP JUMPDEST PUSH2 0x2B6 DUP2 PUSH2 0xBD JUMP JUMPDEST DUP5 ADD SWAP2 POP POP SWAP3 SWAP2 POP POP JUMP JUMPDEST PUSH1 0x0 DUP2 SWAP1 POP SWAP2 SWAP1 POP JUMP JUMPDEST PUSH2 0x2D4 DUP2 PUSH2 0x2C1 JUMP JUMPDEST DUP3 MSTORE POP POP JUMP JUMPDEST PUSH1 0x0 PUSH1 0x40 DUP3 ADD SWAP1 POP DUP2 DUP2 SUB PUSH1 0x0 DUP4 ADD MSTORE PUSH2 0x2F4 DUP2 DUP6 PUSH2 0x288 JUMP JUMPDEST SWAP1 POP PUSH2 0x303 PUSH1 0x20 DUP4 ADD DUP5 PUSH2 0x2CB JUMP JUMPDEST SWAP4 SWAP3 POP POP POP JUMP INVALID LOG2 PUSH5 0x6970667358 0x22 SLT KECCAK256 PUSH14 0x138ABD69836B5EF4E88B3C72DB48 MSTORE8 PUSH11 0xC42D42318A9F87B8699F23 POP JUMP PUSH32 0x4464736F6C634300081200330000000000000000000000000000000000000000 "},"methodIdentifiers":{"reportAttack(string)":"4163f0c5"}}}}}