{
  "_format": "hh-sol-artifact-1",
  "contractName": "DDoSAlert",
  "sourceName": "contracts/DDoSAlert.sol",
  "abi": [
    {
      "anonymous": false,
      "inputs": [
        {
          "indexed": true,
          "internalType": "address",
          "name": "node",
          "type": "address"
        },
        {
          "indexed": false,
          "internalType": "string",
          "name": "ipAddress",
          "type": "string"
        },
        {
          "indexed": false,
          "internalType": "string",
          "name": "method",
          "type": "string"
        },
        {
          "indexed": false,
          "internalType": "uint256",
          "name": "timestamp",
          "type": "uint256"
        }
      ],
      "name": "MaliciousTrafficDetected",
      "type": "event"
    },
    {
      "inputs": [
        {
          "internalType": "string",
          "name": "ipAddress",
          "type": "string"
        },
        {
          "internalType": "string",
          "name": "method",
          "type": "string"
        }
      ],
      "name": "reportAttack",
      "outputs": [],
      "stateMutability": "nonpayable",
      "type": "function"
    }
  ],
  "bytecode": "0x608060405234801561001057600080fd5b50610387806100206000396000f3fe608060405234801561001057600080fd5b506004361061002b5760003560e01c806353fef41414610030575b600080fd5b61004a600480360381019061004591906101fc565b61004c565b005b3373ffffffffffffffffffffffffffffffffffffffff167f76a6eb69902ee92a9d5d0ff313cef4ce9f081e6252bd1d97828328042213208e8383426040516100969392919061030c565b60405180910390a25050565b6000604051905090565b600080fd5b600080fd5b600080fd5b600080fd5b6000601f19601f8301169050919050565b7f4e487b7100000000000000000000000000000000000000000000000000000000600052604160045260246000fd5b610109826100c0565b810181811067ffffffffffffffff82111715610128576101276100d1565b5b80604052505050565b600061013b6100a2565b90506101478282610100565b919050565b600067ffffffffffffffff821115610167576101666100d1565b5b610170826100c0565b9050602081019050919050565b82818337600083830152505050565b600061019f61019a8461014c565b610131565b9050828152602081018484840111156101bb576101ba6100bb565b5b6101c684828561017d565b509392505050565b600082601f8301126101e3576101e26100b6565b5b81356101f384826020860161018c565b91505092915050565b60008060408385031215610213576102126100ac565b5b600083013567ffffffffffffffff811115610231576102306100b1565b5b61023d858286016101ce565b925050602083013567ffffffffffffffff81111561025e5761025d6100b1565b5b61026a858286016101ce565b9150509250929050565b600081519050919050565b600082825260208201905092915050565b60005b838110156102ae578082015181840152602081019050610293565b60008484015250505050565b60006102c582610274565b6102cf818561027f565b93506102df818560208601610290565b6102e8816100c0565b840191505092915050565b6000819050919050565b610306816102f3565b82525050565b6000606082019050818103600083015261032681866102ba565b9050818103602083015261033a81856102ba565b905061034960408301846102fd565b94935050505056fea2646970667358221220e49e29bfdb1160231179ef8d9c93712d1c43c6e2a0bab86e0a06706f2003585a64736f6c63430008120033",
  "linkReferences": {},
  "deployedLinkReferences": {}
}