{
  "_format": "hh-sol-artifact-1",
  "contractName": "DDoSAlert",
  "sourceName": "contracts/DDoSAlert.sol",
  "abi": [
    {
      "anonymous": false,
      "inputs": [
        {
          "indexed": true,
          "internalType": "address",
          "name": "node",
          "type": "address"
        },
        {
          "indexed": false,
          "internalType": "string",
          "name": "ipAddress",
          "type": "string"
        },
        {
          "indexed": false,
          "internalType": "uint256",
          "name": "timestamp",
          "type": "uint256"
        }
      ],
      "name": "MaliciousTrafficDetected",
      "type": "event"
    },
    {
      "inputs": [
        {
          "internalType": "string",
          "name": "ipAddress",
          "type": "string"
        }
      ],
      "name": "reportAttack",
      "outputs": [],
      "stateMutability": "nonpayable",
      "type": "function"
    }
  ],
  "bytecode": "0x608060405234801561001057600080fd5b50610340806100206000396000f3fe608060405234801561001057600080fd5b506004361061002b5760003560e01c80634163f0c514610030575b600080fd5b61004a600480360381019061004591906101f9565b61004c565b005b3373ffffffffffffffffffffffffffffffffffffffff167fdc79bfe0acfcfe8a8d8bd14fb64702a29753d21acf32999196862ff0b3f5e1e782426040516100949291906102da565b60405180910390a250565b6000604051905090565b600080fd5b600080fd5b600080fd5b600080fd5b6000601f19601f8301169050919050565b7f4e487b7100000000000000000000000000000000000000000000000000000000600052604160045260246000fd5b610106826100bd565b810181811067ffffffffffffffff82111715610125576101246100ce565b5b80604052505050565b600061013861009f565b905061014482826100fd565b919050565b600067ffffffffffffffff821115610164576101636100ce565b5b61016d826100bd565b9050602081019050919050565b82818337600083830152505050565b600061019c61019784610149565b61012e565b9050828152602081018484840111156101b8576101b76100b8565b5b6101c384828561017a565b509392505050565b600082601f8301126101e0576101df6100b3565b5b81356101f0848260208601610189565b91505092915050565b60006020828403121561020f5761020e6100a9565b5b600082013567ffffffffffffffff81111561022d5761022c6100ae565b5b610239848285016101cb565b91505092915050565b600081519050919050565b600082825260208201905092915050565b60005b8381101561027c578082015181840152602081019050610261565b60008484015250505050565b600061029382610242565b61029d818561024d565b93506102ad81856020860161025e565b6102b6816100bd565b840191505092915050565b6000819050919050565b6102d4816102c1565b82525050565b600060408201905081810360008301526102f48185610288565b905061030360208301846102cb565b939250505056fea26469706673582212206d138abd69836b5ef4e88b3c72db48536ac42d42318a9f87b8699f2350567f4464736f6c63430008120033",
  "linkReferences": {},
  "deployedLinkReferences": {}
}